:1000000044C1000073C1000071C100006FC1000055
:100010006DC100006BC1000069C1000067C1000034
:1000200065C1000063C1000061C100005FC1000044
:100030005DC1000086C5000059C1000057C1000025
:1000400055C1000053C1000051C100004FC1000064
:100050004DC100004BC1000049C1000028C500008F
:1000600045C1000079C300004EC300003FC100003D
:100070003DC100003BC1000039C1000037C1000094
:1000800035C1000033C1000031C100002FC10000A4
:100090002DC100002BC1000029C1000027C10000B4
:1000A00025C1000023C1000021C100001FC10000C4
:1000B0001DC100001BC1000019C1000017C10000D4
:1000C00015C1000013C1000011C100000FC10000E4
:1000D0000DC100000BC1000009C1000007C10000F4
:1000E00005C1000011041404030407040B044B04AD
:1000F00018041C04220426042A043004340438049E
:100100004B043E044204460486048B0490049A0483
:10011000A4041D05AE04B604BE04C804D204DC0465
:10012000EB04F5041D05FF04090513054E414E4976
:100130004E495459494E46CDCCCC3D0AD7233C17A5
:10014000B7D13877CC2B329595E6241FB14F0A00F2
:100150000020410000C84200401C4620BCBE4CCAE2
:100160001B0E5AAEC59D7400000A0B02090C0D0E41
:100170000807030401000000000000000000000068
:10018000000000000000000000000000000000006F
:10019000000000121110000000000000000000002C
:1001A000000000000000000000000000000000212E
:1001B00000240027002A002D003000330001010038
:1001C00000040107010A0100002000230026002985
:1001D000002C002F0032000001000003010601097D
:1001E0000100002200250028002B002E00310034E1
:1001F0000002010000050108010B010505050507C6
:100200000508080808020202020A0A080804040491
:1002100004010101010101010103030303030303BD
:1002200003040707070C0C0C0C0C0C0C0C0202024C
:100230000206060606060606060B0B0B0B0B0B0B3F
:100240000B010210202008081020401020408002DE
:10025000010201080402010102040810204080800C
:100260004020100804020180040201804020100890
:100270000402010804020101020408102040800168
:1002800002040810204080002E1311241FBECFEF5F
:10029000D1E2DEBFCDBF00E00CBF24E0A0E9B3E0B7
:1002A00001C01D92A43EB207E1F713E0A0E0B2E066
:1002B000E4E0F4E300E00BBF02C007900D92A03928
:1002C000B107D9F711E0C5E4D1E000E006C02197FD
:1002D0000109802FFE010E94A917C434D10780E0D4
:1002E0000807A9F70E9476090C94001A89CECF92CC
:1002F000DF92EF92FF920F931F93CF93DF936C01E6
:100300007A018B01C0E0D0E0CE15DF0581F0D80185
:100310006D918D01D601ED91FC910190F081E02D60
:10032000C6011995892B11F02196EECF7E01C701E8
:10033000DF91CF911F910F91FF90EF90DF90CF90C1
:100340000895089580E090E00895FC01538D448D58
:10035000252F30E0842F90E0821B930B541710F070
:10036000CF96089501970895FC01918D828D98177D
:1003700061F0828DDF01A80FB11D5D968C91928D89
:100380009F5F9F73928F90E008958FEF9FEF089586
:10039000FC01918D828D981731F0828DE80FF11D4F
:1003A000858D90E008958FEF9FEF0895FC01918D6A
:1003B000228D892F90E0805C9F4F821B91098F7363
:1003C0009927089588E094E0F1DF21E0892B09F472
:1003D00020E0822F0895FC01848DDF01A80FB11D5C
:1003E000A35ABF4F2C91848D90E001968F7399276B
:1003F000848FA689B7892C93A089B1898C91837049
:1004000080648C93938D848D981306C00288F38941
:10041000E02D80818F7D80830895EF92FF920F936E
:100420001F93CF93DF93EC0181E0888F9B8D8C8DA0
:10043000981305C0E889F989808185FD25C0F62ECD
:100440000B8D10E00F5F1F4F0F731127E02E8C8D67
:10045000E8120BC00FB607FCFACFE889F989808152
:1004600085FFF5CFCE01B7DFF2CF8B8DFE01E80F10
:10047000F11DE35AFF4FF0829FB7F8940B8FEA8982
:10048000FB89808180620AC09FB7F894EE89FF895A
:100490006083E889F98980818370806480839FBF4D
:1004A00081E090E0DF91CF911F910F91FF90EF904D
:1004B0000895CF93DF93EC01888D8823C1F0EA89FA
:1004C000FB89808185FD05C0A889B9898C9186FD4D
:1004D0000EC00FB607FCF5CF808185FFF2CFA8894B
:1004E000B9898C9185FFEDCFCE0175DFE8CFDF9123
:1004F000CF91089580E090E0892B19F063DF81119E
:1005000025C080E090E0892B41F080E090E0892BCD
:1005100021F00E94000081111CC080E090E0892B36
:1005200041F080E090E0892B21F00E9400008111D1
:1005300013C080E090E0892BA1F080E090E0892B4F
:1005400081F00E94000081110AC008950E940000FD
:10055000D8CF0E940000E1CF0E940000EACF0C94A7
:10056000000008950E94D2190F931F93CF93DF9339
:10057000EC0188819981009729F02A813B81261717
:10058000370788F48B016F5F7F4F0E94F218009746
:1005900061F0998388831B830A832C813D81232BFF
:1005A00011F4FC01108281E001C080E0DF91CF9165
:1005B0001F910F910895EF92FF920F931F93CF9386
:1005C000DF93EC017B018A01BA01CEDF28813981FA
:1005D00081110DC02115310519F0C9010E9469185A
:1005E000198218821D821C821B821A8206C01D83FA
:1005F0000C83B701C9010E94DF19CE01DF91CF91B1
:100600001F910F91FF90EF900895FC0180819181DF
:10061000009711F00C9469180895FC011182108262
:1006200013821282158214826115710549F0FB0153
:1006300001900020E9F73197AF01461B570BBBCF64
:100640000895BF92CF92DF92EF92FF920F931F9384
:10065000CF93DF937C016B01EA01890124173507F1
:1006600020F48D2FE901042F182F66E872E0C701EE
:10067000D4DFD60114968D919C911597C817D90790
:10068000B8F58017910708F48C01D601ED91FC9123
:100690001197E00FF11FB08010826D917C916C0F6B
:1006A0007D1F6115710559F0FB0101900020E9F7EC
:1006B0003197AF01461B570BC7017DDF13C0F70110
:1006C00080819181009711F00E946918D7011196DD
:1006D0001C921E9215961C921E92149713961C92B1
:1006E0001E921297D601ED91FC91E00FF11FB0829E
:1006F000C701DF91CF911F910F91FF90EF90DF9095
:10070000CF90BF9008951F920F920FB60F921124B1
:100710000BB60F922F933F934F935F936F937F93FB
:100720008F939F93AF93BF93EF93FF9388E094E0F1
:1007300052DEFF91EF91BF91AF919F918F917F9189
:100740006F915F914F913F912F910F900BBE0F9042
:100750000FBE0F901F9018951F920F920FB60F9219
:1007600011240BB60F922F938F939F93EF93FF93C8
:10077000E0911804F09119048081E0911E04F09139
:100780001F0482FD12C09081809121048F5F8F73BE
:1007900020912204821751F0E0912104F0E0E85FFB
:1007A000FB4F958F8093210401C08081FF91EF91D1
:1007B0009F918F912F910F900BBE0F900FBE0F90B6
:1007C0001F901895362F90E0FC01E959FE4F449197
:1007D000FC01EF5BFD4F2491FC01E550FE4F94912D
:1007E000992309F46CC0442309F455C050E0FA0180
:1007F0003197E231F10508F04EC08827EE58FF4FDF
:100800008F4F0C94A917809180008F7707C080913B
:1008100080008F7D03C080918000877F809380005F
:100820003AC084B58F7702C084B58F7D84BD33C054
:100830008091B0008F7703C08091B0008F7D80934E
:10084000B00029C0809190008F7707C08091900000
:100850008F7D03C080919000877F809390001BC0A4
:100860008091A0008F7707C08091A0008F7D03C08A
:100870008091A000877F8093A0000DC0809120010F
:100880008F7707C0809120018F7D03C08091200168
:10089000877F80932001E92FF0E0EE0FFF1FEF51DB
:1008A000FE4FA591B4919FB7F894311104C08C917B
:1008B0002095282302C0EC912E2B2C939FBF0895E6
:1008C0001F93CF93DF93182FEB013BD3209711F4A5
:1008D00060E004C0CF3FD10531F461E0812FDF91AA
:1008E000CF911F916FCFE12FF0E0E959FE4FE491D6
:1008F0008E2F90E0FC013197E231F10508F09DC0A8
:100900008827EC57FF4F8F4F0C94A91784B5806848
:1009100084BDC7BD97C084B5806284BDC8BD92C088
:1009200080918000806880938000D0938900C0937C
:10093000880088C080918000806280938000D0937E
:100940008B00C0938A007EC0809180008860809375
:100950008000D0938D00C0938C0074C08091B00053
:1009600080688093B000C093B3006CC08091B000E9
:1009700080628093B000C093B40064C08091900006
:10098000806880939000D0939900C09398005AC0DB
:1009900080919000806280939000D0939B00C093E0
:1009A0009A0050C080919000886080939000D0930E
:1009B0009D00C0939C0046C08091A00080688093F9
:1009C000A0008091A0008F7B8093A000D093A9000D
:1009D000C093A80037C08091A00080628093A000DF
:1009E000D093AB00C093AA002DC08091A000886076
:1009F0008093A000D093AD00C093AC0023C0809141
:100A00002001806880932001D0932901C0932801A0
:100A100019C080912001806280932001D0932B0126
:100A2000C0932A010FC0809120018860809320012B
:100A3000D0932D01C0932C0105C0C038D1050CF016
:100A40004CCF46CFDF91CF911F9108953FB7F894D7
:100A50008091040490910504A0910604B0910704CC
:100A600026B5A89B05C02F3F19F00196A11DB11D09
:100A70003FBFBA2FA92F982F8827820F911DA11D44
:100A8000B11DBC01CD0142E0660F771F881F991F81
:100A90004A95D1F708952FB7F894609100047091AA
:100AA000010480910204909103042FBF08951F92C6
:100AB0000F920FB60F9211242F933F938F939F9312
:100AC000AF93BF938091000490910104A091020420
:100AD000B09103043091FF0323E0230F2D3720F45E
:100AE0000196A11DB11D05C026E8230F0296A11D88
:100AF000B11D2093FF038093000490930104A09301
:100B00000204B09303048091040490910504A09121
:100B10000604B09107040196A11DB11D8093040441
:100B200090930504A0930604B0930704BF91AF917E
:100B30009F918F913F912F910F900FBE0F901F901B
:100B400018951F920F920FB60F9211240BB60F92A9
:100B50002F933F934F935F936F937F938F939F93C5
:100B6000AF93BF93EF93FF93E0E0F0E01995FF910F
:100B7000EF91BF91AF919F918F917F916F915F9115
:100B80004F913F912F910F900BBE0F900FBE0F9082
:100B90001F901895CF93DF938338910514F082E866
:100BA00090E0EC018E379F4F14F4CEE7DFEF809199
:100BB0000602909107021C161D065CF48E399340C4
:100BC000BCF460E089E0FEDD61E08AE0FBDDBE01AF
:100BD00017C0209769F00B975CF061E089E0F2DDC7
:100BE00060E08AE0EFDD662777276C1B7D0B08C08D
:100BF00060E089E0E7DD60E08AE0E4DD60E070E08D
:100C000088E0DF91CF915CCE0F931F93CF93DF935A
:100C100020919003211103C000EA10E002C006EE0B
:100C200010E0CC27DD27C01BD10B8C179D0794F05B
:100C30000817190724F0181619064CF48C0161E006
:100C400083E0C0DD60E084E0BDDDB80116C0009740
:100C500061F0EC0160E083E0B5DD61E084E0B2DDED
:100C6000662777276C1B7D0B08C060E083E0AADD58
:100C700060E084E0A7DD60E070E082E0DF91CF918A
:100C80001F910F911DCE0F931F93CF93DF93209150
:100C90009003211103C000EA10E002C006EE10E04C
:100CA000CC27DD27C01BD10B8C179D0794F00817AC
:100CB000190724F0181619064CF48C0161E086E03F
:100CC00081DD60E087E07EDDB80116C0009761F04D
:100CD000EC0160E086E076DD61E087E073DD6627A9
:100CE00077276C1B7D0B08C060E086E06BDD60E061
:100CF00087E068DD60E070E085E0DF91CF911F91D3
:100D00000F91DECDCF92DF92EF92FF926B017C01CB
:100D100020E030E040EA51E40E9450171816A4F099
:100D200020E030E040EA51ECC701B6010E941D15F9
:100D300087FD11C020E030E0A901C701B6010E9483
:100D4000501787FF13C00DC0C12CD12C90EAE92E9B
:100D500091E4F92E0BC0C12CD12C80EAE82E81EC55
:100D6000F82E6DEC7CEC84EA91E404C06AE979E940
:100D700081ED91E4A70196010E94821520E030E008
:100D80004EEC53E40E9453160E941F17CB01693AA0
:100D9000734014F088EA93E097FF02C080E090E08F
:100DA000FF90EF90DF90CF9008958EBD00000DB4BE
:100DB00007FEFDCF8EB50895CF93C5E1C80F60E063
:100DC0008C2F00DD88E9F1DF80E0EFDF80E0EDDFF0
:100DD00080E0EBDF80E0E9DF61E08C2FF3DC8BE883
:100DE00091E00197F1F760E08C2FECDC80EEDDDF25
:100DF00061E08C2FCF91E6CCFF920F931F93CF939E
:100E0000DF9395E1F92EF80E60E08F2DDBDC80E6B4
:100E1000CCDF80E0CADF082F80E0C7DF182F80E03A
:100E2000C4DFC82F80E0C1DFD82F61E08F2DCADC7E
:100E3000402F50E060E070E0742F6627552744276C
:100E4000812F90E0A0E0B0E0DC0199278827480FCF
:100E5000591F6A1F7B1F8C2F90E0A0E0B0E0BA2FD3
:100E6000A92F982F8827840F951FA61FB71FBC0195
:100E7000CD016D0F711D811D911DDF91CF911F91CE
:100E80000F91FF900895CF93DF93DC01862F90E0C0
:100E9000FC01EF5BFD4F549114965C931497242F43
:100EA00030E0F901EF5BFD4FE4911596EC93159757
:100EB00085509E4FFC017491E72FF0E0EE0FFF1F6D
:100EC000EF51FE4FC591D4911796DC93CE931697B0
:100ED000F901E550FE4FE491F0E0EE0FFF1FE953FA
:100EE000FE4F2591349119963C932E931897FC014F
:100EF0008491E82FF0E0EE0FFF1FE355FE4FC59100
:100F0000D4911B96DC93CE931A9781E0641380E012
:100F100052968C93529781EC9CE21D969C938E93F3
:100F20001C97E8815E2B58831696ED91FC911797DC
:100F3000908114968C91809589238083DF91CF9145
:100F4000089590E0FC01EF5BFD4F2491FC01E5501A
:100F5000FE4F8491882399F090E0880F991FFC013F
:100F6000E355FE4FA591B491FC01EF51FE4F8591E1
:100F700094918FB7F894EC91E22BEC938FBF089586
:100F8000009761F0FC0101900020E9F73197AF0173
:100F9000481B590BBC0188E094E0A9C980E090E0AF
:100FA0000895CF93DF93FC012481358142175307C5
:100FB00080F4FB01DC01CD91DC9160817181CE0177
:100FC000840F951F0E94E619009719F08C1B9D0B4A
:100FD00002C08FEF9FEFDF91CF9108958F929F9284
:100FE000AF92BF920F931F93CF93DF93CDB7DEB72E
:100FF000A1970FB6F894DEBF0FBECDBF19A2423045
:1010000008F44AE08E010F5D1F4F842E912CA12C15
:10101000B12CA50194010E946B17E62FB901CA01FA
:1010200001501109EA3014F4E05D01C0E95CD80117
:10103000EC93232B242B252B61F7C801A1DFA1966C
:101040000FB6F894DEBF0FBECDBFDF91CF911F91D9
:101050000F91BF90AF909F908F900895CF92DF92A5
:10106000EF92FF92CF93DF936B017C016DE288E0FA
:1010700094E0D3D9EC0166277727CB016C197D0961
:101080008E099F094AE0AADF8C0F9D1FDF91CF9147
:10109000FF90EF90DF90CF900895BC01990F880BDF
:1010A000990B97FDDBCF4AE099CFCF93DF93F5DF24
:1010B000EC0184E892E064DF8C0F9D1FDF91CF91FB
:1010C00008955ECF8F929F92AF92BF92CF92DF92A0
:1010D000EF92FF920F931F93CF93DF936B017C01ED
:1010E000142F9B01AC010E945417882319F083E848
:1010F00093E027C046015701E894B7F82FEF3FEF80
:101100004FE75FE7C501B4010E94541781110DC07C
:101110002FEF3FEF4FE75FE7C501B4010E941D15B8
:1011200018161CF487E893E00CC02FEF3FEF4FE751
:101130005FE4C701B6010E94501718167CF48BE8D3
:1011400093E0DF91CF911F910F91FF90EF90DF908F
:10115000CF90BF90AF909F908F9012CF2FEF3FEF27
:101160004FE75FECC701B6010E941D1587FDE7CF71
:1011700020E030E0A901C701B6010E941D1587FFDC
:101180000AC06DE288E094E048D9EC01F7FAF094E7
:10119000F7F8F09402C0C0E0D0E000E060E070E05A
:1011A00080E09FE3101741F020E030E040E251E49E
:1011B0000E94B7160F5FF6CFA70196010E94531643
:1011C0006B017C010E9424174B015C014AE006DFA1
:1011D000C80FD91F1123A9F1C501B4010E9421151F
:1011E0009B01AC01C701B6010E9452166B017C0144
:1011F0006EE288E094E011D9C80FD91F20E030E0FA
:1012000040E251E4C701B6010E9482154B015C0126
:101210000E9424176B01E12CF12C4AE0C701B601B2
:10122000DDDEC80FD91FC701B6010E9421159B0141
:10123000AC01C501B4010E9452166B017C01115032
:10124000E9F6CE01DF91CF911F910F91FF90EF90C2
:10125000DF90CF90BF90AF909F908F900895809136
:101260007B00886080937B0087E480937C00809182
:101270007A00806480937A0080917A0086FDFCCFAA
:10128000809178009091790008950F931F9303DC6B
:1012900060931004709311048093120490931304CC
:1012A00088E094E061D897FF1EC0F5DB0091100440
:1012B000109111042091120430911304DC01CB0130
:1012C000801B910BA20BB30B00910C0410910D0429
:1012D00020910E0430910F0480179107A207B307E5
:1012E000F8F28FEF9FEF1F910F910895CF93DF9347
:1012F000CDB7DEB76E970FB6F894DEBF0FBECDBF89
:10130000789484B5826084BD84B5816084BD85B5E0
:10131000826085BD85B5816085BD80916E008160EC
:1013200080936E0010928100809181008260809392
:101330008100809181008160809381008091800094
:101340008160809380008091B10084608093B100BF
:101350008091B00081608093B000809191008260A4
:1013600080939100809191008160809391008091A1
:1013700090008160809390008091A10082608093B2
:10138000A1008091A10081608093A1008091A000C4
:1013900081608093A000809121018260809321016F
:1013A00080912101816080932101809120018160E1
:1013B0008093200180917A00846080937A008091EC
:1013C0007A00826080937A0080917A0081608093B5
:1013D0007A0080917A00806880937A001092C10030
:1013E000E0911804F091190482E08083E0911804E0
:1013F000F09119041082E0911404F0911504108208
:10140000E0911604F091170480E18083109220048B
:10141000E0911C04F0911D0486E08083E0911A04A1
:10142000F0911B04808180618083E0911A04F09127
:101430001B04808188608083E0911A04F0911B0472
:10144000808180688083E0911A04F0911B04808180
:101450008F7D808380919100887F8360809391004D
:101460008091A100887F82608093A10082E1EEE0FC
:10147000F2E0DE01119601900D928A95E1F78E015E
:101480000F5F1F4F3E0123E1620E711CD8018C914A
:101490000E5F1F4F56DD60167106C1F780E090E0C9
:1014A000F2DB80E090E0B0DB80E090E073DB86E18F
:1014B00048DD87E146DD61E086E184D961E087E1CE
:1014C00081D91FB7F89480919103811120C0E0E386
:1014D000F2E08491E6E7F2E09491E82FF0E0EE0F7D
:1014E000FF1FE355FE4FA591B491EC91E92319F448
:1014F00061E085E367D985E324DD8CB580618CBD2F
:101500008CB580648CBD84E31CDD83E31ADD80919F
:1015100091038F5F809391031FBF60E086E152D9F2
:1015200088E843DC83E041DC61E086E14BD960E0A0
:1015300087E148D988E839DC83E037DC61E087E17E
:1015400041D981E090E038DC82E090E035DC87DE54
:101550009093070280930602909303028093020205
:101560009ADA6093E9037093EA038093EB03909314
:10157000EC0360939203709393038093940390938E
:1015800095036093F7037093F8038093F9039093A6
:10159000FA038FE392E0F4DC84E892E0F1DC87E880
:1015A00092E08FDD8CE991E078DD8CE992E089DDD5
:1015B00080E090E072DD80EA92E083DD88EA93E0EB
:1015C0006CDD84EA92E07DDD80EA90E066DD85EB0B
:1015D00092E077DD82E890E068DD9924939488E0DA
:1015E00094E00E94D601181619060CF0D7C166E8DF
:1015F00072E0CE01499611D848DE97FD1EC08A30B0
:101600009105D9F089831A820D8D1E8D0F5F1F4FB2
:10161000B801CE0149960E94B402882369F3298D4E
:101620003A8D8D8D9E8DBE016F5F7F4F820F931F10
:101630000E94DF191E8F0D8FDFCF1C8A1B8A1E8A26
:101640001D8A188E1F8A698D7A8D6115710529F0A2
:101650004D8D5E8DC3010E94DB02CB88DC88C114F6
:10166000D104E9F10F89188D01151105C1F1760139
:101670005701BFEFAB1ABB0AF7018081082E000C9F
:10168000990B0E94FD14892B11F07501F1CF0150C7
:1016900011090C0D1D1DD8018C91082E000C990B01
:1016A0000E94FD14892B31F00E151F0518F0015012
:1016B0001109F1CFA8014F5F5F4F4E195F09588F95
:1016C0004F8BCE14DF0420F4B701C6010E94D61957
:1016D000EB89FC898F89988DE80FF91F10828F891B
:1016E000988D892B09F452C16DEB72E0CE01019601
:1016F0000E940D0340E050E0BE016F5F7F4FC301C9
:1017000050DC8C01CE0101960E94050317FD64C0D8
:101710000C5F1F4F62EC72E0CE0101960E940D0338
:10172000A801BE016F5F7F4FC3013BDC7C01CE018E
:1017300001960E940503F7FC02C0970102C02F89A1
:10174000388DA801B301CE0101960E942103898141
:101750009A81009721F0C0D76B017C0103C0C12C96
:10176000D12C7601CE0101960E94050320E030E0E5
:1017700040E450ECC701B6010E941D1587FD10C062
:1017800020E030E040E450E4C701B6010E94501769
:10179000181664F4C12CD12C70E4E72EFE2C06C080
:1017A000C12CD12C60E4E62E60ECF62EC092E10351
:1017B000D092E203E092E303F092E403809190037D
:1017C000882351F0109290031092C9031092C8031D
:1017D0001092B5031092B40364EC72E0CE0101964E
:1017E0000E940D0340E050E0BE016F5F7F4FC301D8
:1017F000D8DB8C01CE0101960E94050317FD50C075
:101800000C5F1F4F62EC72E0CE0101960E940D0347
:10181000A801BE016F5F7F4FC301C3DB7C01CE0116
:1018200001960E940503F7FC02C0970102C02F89B0
:10183000388DA801B301CE0101960E942103898150
:101840009A81009721F04BD76B017C0103C0C12C1A
:10185000D12C7601CE0101960E940503909290034F
:10186000C601873E910514F086EE90E08A31BFEF05
:101870009B0714F48AE19FEF9093C9038093C803F8
:101880001092E1031092E2031092E3031092E4033A
:101890001092B0031092B1031092B2031092B303EE
:1018A00069EC72E0CE0101960E940D0340E050E029
:1018B000BE016F5F7F4FC30174DB8C01CE010196C7
:1018C0000E94050317FD57C00A5F1F4F62EC72E0CC
:1018D000CE0101960E940D03A801BE016F5F7F4FEC
:1018E000C3015FDB7C01CE0101960E940503F7FC7A
:1018F00002C0970102C02F89388DA801B301CE0123
:1019000001960E94210389819A81009721F0E4D6F3
:101910006B017C0103C0C12CD12C7601CE01019654
:101920000E94050320E030E040EA51ECC701B60117
:101930000E941D1587FD11C020E030E040EA51E40F
:10194000C701B6010E94501718166CF4C12CD12C97
:1019500050EAE52E51E4F52E06C0C12CD12C40EA08
:10196000E42E41ECF42EC092D003D092D103E09249
:10197000D203F092D3038FD86093920370939303B2
:10198000809394039093950310920102C3010E94E7
:101990000503CE0149960E94050321CE7CD8009113
:1019A0009203109193032091940330919503DC01ED
:1019B000CB01801B910BA20BB30B853F9140A1057E
:1019C000B105F8F080910102811106C080ED92E02E
:1019D000D7DA84E892E0D4DA81E0809301021092B1
:1019E000E1031092E2031092E3031092E4031092D9
:1019F00090031092C9031092C8031092B50310927D
:101A0000B40349D80091F7031091F8032091F9032A
:101A10003091FA036B017C01C01AD10AE20AF30A81
:101A2000970186010A3011052105310508F400C42B
:101A30006093F7037093F8038093F9039093FA038C
:101A400081E090E0D9D96093F3037093F40380931D
:101A5000F5039093F60382E090E0CED900DC9093FA
:101A600007028093060280917B00877F80937B0032
:101A70008EE580937C0080917A00806480937A0068
:101A800080917A0086FDFCCF80917A0080648093FB
:101A90007A0080917A0086FDFCCF209178008091B9
:101AA0007900422F50E060E070E09A01AB01382BE2
:101AB000211531054105510539F064EB7BE281E1E7
:101AC00090E00E948D1702C020E030E03093F203D6
:101AD0002093F103121613065CF480910402909196
:101AE00005022817390724F43093050220930402D5
:101AF0008090F3039090F403A090F503B090F60368
:101B00000091AA031091AB03C801880F991F880F99
:101B1000991F9C012A563C4F79018091AC0390910A
:101B2000AD03A091AE03B091AF03A5019401281BB2
:101B3000390B4A0B5B0BCA01B90185D720E030E0B5
:101B400041E953EC0E94B71629E732E745E55FE328
:101B5000D9D72AE037ED43E25CE30E94B716D701FC
:101B60006D937D938D939C931397C801019665E0C7
:101B700070E00E9458179093AB038093AA0306E984
:101B800013E03AEAE32E33E0F32E60E070E0CB019D
:101B9000F80121913191419151918F010E94531689
:101BA000E016F106A9F720E030E040EA50E40E9498
:101BB000B7166093E5037093E6038093E703909371
:101BC000E8038092AC039092AD03A092AE03B09272
:101BD000AF0310910102111105C06DEC7CEC8CE497
:101BE0009FE304C060E070E080E290E42AE037ED1B
:101BF00043E25CE387D71B012C01C090E103D09046
:101C0000E203E090E303F090E4038090B00390904F
:101C1000B103A090B203B090B303A5019401C70132
:101C2000B6010E945017A5019401181694F4C20140
:101C3000B1010E945316962EA72EB82E092F262FDB
:101C4000372F482F592FC701B601F7D687FF1EC07F
:101C500019C0C701B601F1D687FF24C0A2019101C6
:101C6000C501B4010E945216962EA72EB82E092F38
:101C7000262F372F482F592FC701B6010E94501722
:101C8000181624F49C2CAD2CBE2C0F2D892D9A2DCA
:101C9000AB2DB02F8093B0039093B103A093B20308
:101CA000B093B30380919003882309F450C0E0916E
:101CB000C803F091C9034091B4035091B5039F014B
:101CC000DA010E94B11797FF02C0E0E0F0E0CF0117
:101CD000841B950BF7FF03C0F195E195F1099A017B
:101CE00057FF04C022273327241B350B2E173F072D
:101CF0001CF423E030E002C02FEF30E02817390752
:101D00000CF4C901319521953109281739070CF4D4
:101D10009C01420F531F5093B5034093B403473EB9
:101D2000510514F046EE50E04A31FFEF5F0714F41E
:101D30004AE15FEF5093F0034093EF031092B0033A
:101D40001092B1031092B2031092B30361C080905D
:101D5000B0039090B103A090B203B090B3032AE017
:101D600037ED43EA5CE3C501B4010E945017181631
:101D70006CF423E333E34BE152E4C501B401C2D672
:101D80002AE939E949E851E48ED719C02AE037ED4C
:101D900043EA5CEBC501B40150D687FF0DC023E3D5
:101DA00033E34BE152E4C501B401ACD62AE939E989
:101DB00049E851E477D703C060E070E0CB010E94AE
:101DC0001F17613A710514F060EA70E060362FEF7A
:101DD000720714F460E67FEF7093F0036093EF03F3
:101DE000C701B6019F772DEC3CEC4CE45DE325D6B2
:101DF00087FF0EC0C501B4019F772DEC3CEC4CE48D
:101E00005DE31BD687FF04C01092F0031092EF032E
:101E1000112369F01092EE031092ED031092B803B3
:101E20001092B9031092BA031092BB03E1C0609103
:101E3000D0037091D1038091D2039091D3030E947B
:101E40008206A0900602B09007028C010A191B09B5
:101E5000B801012E000C880B990BF5D56B017C01A4
:101E60006093C4037093C5038093C6039093C70324
:101E70002090B8033090B9034090BA035090BB0350
:101E800020E030E0A9010E94501718162CF0C7017D
:101E9000B6019058D4D78B0180910002882331F08D
:101EA000013211054CF01092000206C009311105F3
:101EB0001CF481E08093000280910002882339F0B5
:101EC0001092B7031092B60300E010E05FC0A201C9
:101ED0009101C701B601E6D62DEC3CEC4CE45EE383
:101EE00011D6A7019601DFD6AAD7FB01AB014F5D42
:101EF0005F4F4334510568F420E030E0A901C70189
:101F0000B601CED718161CF4E2E2F0E002C0EEED06
:101F1000FFEF2091020230910302A21AB30AB7FE2A
:101F200003C0B194A194B10832E0A316B1042CF01F
:101F30001092B7031092B6031DC0BF01F7FF04C093
:101F4000662777276E1B7F0B4091B6035091B7032E
:101F50004A5F5F4F22E830E0261B370B37FF02C095
:101F600020E030E0241735070CF4A9015093B703A3
:101F70004093B6030091B6031091B7031E161F06D7
:101F80001CF01195019511090E0F1F1F0E944B05A2
:101F90009B01AC01243C89E038074105510570F4F0
:101FA000A2E8B0E066D624EC39E040E050E093D7F8
:101FB000293131052CF429E130E002C022E830E07B
:101FC00088279927821B930B081719072CF0C90142
:101FD000021713070CF4C8019093EE038093ED03EE
:101FE000C092B803D092B903E092BA03F092BB0357
:101FF0008091CF038823D1F11092F0031092EF0368
:10200000C090CA03D090CB03E090CC03F090CD03F6
:102010009AE0C90ED11CE11CF11CC092CA03D092F7
:10202000CB03E092CC03F092CD038091E103909139
:10203000E203A091E303B091E403BC01CD019F77DB
:102040002DEC3CEC4CE45DE3F8D487FF06C08091B6
:10205000C8039091C903892B39F0A0EDCA16A7E0F7
:10206000DA06E104F10450F01092CF031092CA0393
:102070001092CB031092CC031092CD038091ED030C
:102080009091EE0397FF03C091958195910900917E
:102090000602109107024F970CF44BC08091020288
:1020A00090910302F801E81BF90BCF010296059706
:1020B00008F03FC0C090C403D090C503E090C603B1
:1020C000F090C70320E030E0A901C701B601E8D6CF
:1020D000181654F420E030E040EC51E4C701B6019A
:1020E000DFD6181654F025C020E030E040EC51EC6B
:1020F000C701B601A2D487FF1CC08091C003909194
:10210000C103A091C203B091C3030A96A11DB11DE2
:102110008093C0039093C103A093C203B093C30301
:1021200080399140A105B10560F081E08093CE0334
:1021300008C01092C0031092C1031092C203109203
:10214000C3038091CE03882309F456C01092EE0396
:102150001092ED03C090BC03D090BD03E090BE038D
:10216000F090BF032AE0C20ED11CE11CF11CC0920A
:10217000BC03D092BD03E092BE03F092BF038090F7
:10218000C4039090C503A090C603B090C70320E09D
:1021900030E0A901C501B40183D6181654F420E03B
:1021A00030E040EC51E4C501B40147D487FF0AC0D8
:1021B00010C020E030E040EC51ECC501B40170D615
:1021C00018163CF03CEDC31635E0D306E104F104EB
:1021D000D8F01092CE031092BC031092BD0310925F
:1021E000BE031092BF031092C0031092C10310925D
:1021F000C2031092C30308C01092BC031092BD0327
:102200001092BE031092BF031093030200930202C8
:102210000091EF031091F003C8010E944306C8012A
:102220000E9404068091ED039091EE030E94CA057E
:102230000E944B050091E9031091EA032091EB0302
:102240003091EC036B017C01C01AD10AE20AF30A57
:1022500097018601023311052105310508F4F7C104
:102260006093E9037093EA038093EB039093EC038C
:1022700080EF92E00E9461086091F3037091F40393
:102280008091F5039091F60397FF03C00E942E08FA
:1022900003C04AE00E94EE0783E093E00E946108D9
:1022A0006091E5037091E6038091E7039091E80364
:1022B00043E00E94620889E093E00E946108609117
:1022C000E1037091E2038091E3039091E40343E022
:1022D0000E94620882E193E00E9461088091EF030E
:1022E0009091F0030E944D0888E193E00E946108FC
:1022F00080E293E00E94610885E293E00E94610819
:1023000080919003882319F082E392E002C08BE36E
:1023100092E00E946108E091E003EE2EF12C23E1AF
:10232000E29FF0011124EB55FB4FA285B3859C91F0
:102330008481892B8C93A681B7819C918481892B80
:102340008C938BE290E00197F1F7A681B7819C9185
:102350008481809589238C938289882339F0A28592
:10236000B3859C918481809589238C9383E18E9D94
:1023700080018F9D100D11240B551B4F680138E013
:10238000C30ED11CD8011896ED91FC91199790813C
:102390005801B5E0AB0EB11CF8018581892309F025
:1023A0005AC10E942605D8011C962D913C911D977B
:1023B00040E050E02855394E4F4F5F4FDC01CB01D4
:1023C000820F931FA41FB51FF80186879787A08BE4
:1023D000B18B9801225F3F4F4901D601ED91FC91ED
:1023E0009081F5018081892369F40E942605D4013A
:1023F0002D913D914D915C9126173707480759075C
:1024000060F729C10E942605F80124853585DC0185
:10241000CB01820F931FA11DB11D86879787A08BCB
:10242000B18B83E18E9D80018F9D100D11240B5582
:102430001B4F5801F8E0AF0EB11C480125E0820E99
:10244000911CA801425F5F4F6A01D501ED91FC919B
:102450009081F4018081892369F00E942605D601CC
:102460002D913D914D915C912617370748075907EB
:1024700060F7F1C00E942605F80124853585A90181
:1024800045505109268537856A01C21AD30AA6012B
:10249000460F571F8701000F111F000F111F0C520D
:1024A0001C4FBA0180E090E029E330E040E050E0CA
:1024B00012D5CA01B901C5D220E030E048EC52E49F
:1024C00056D4D8016D937D938D939C931397C70138
:1024D000019663E070E0ECD48093E0038CE293E03B
:1024E0000E9461086091D4037091D5038091D60356
:1024F0009091D70342E00E94620885E393E00E9436
:1025000061086091D8037091D9038091DA039091AA
:10251000DB0342E00E9462088EE393E00E946108C0
:102520006091DC037091DD038091DE039091DF0305
:1025300042E00E94620884E892E00E94C00787E4BB
:1025400093E00E94610880910602909107020E9428
:102550004D0883E593E00E9461086091D00370917B
:10256000D1038091D2039091D3030E9482060E94EE
:102570004D0882E193E00E9461088091ED03909103
:10258000EE030E944D0889E593E00E946108609186
:10259000D0037091D1038091D2039091D30341E095
:1025A0000E9462088FE593E00E9461088091060214
:1025B000909107029C012C593140B901032E000C67
:1025C000880B990B37FD06C03ED22AE939E941ED67
:1025D00051E405C038D22DEC3CEC44EA51E4C7D3B9
:1025E00041E00E94620888E693E00E9461088091C1
:1025F000F1039091F2030E944D088EE693E00E9451
:10260000610880910402909105020E9455088FE0B4
:1026100097E290930502809304028091CF03811189
:1026200004C08091CE03882391F085E793E00E9457
:1026300061088091CF0390E00E944D0885EB92E005
:102640000E9461088091CE0390E00E9455080E948C
:102650007A020C94ED0A40E050E01CCFE8E0F4E090
:102660001382128288EE93E0A0E0B0E08483958329
:10267000A683B78384E292E09183808385EC90E027
:102680009587848784EC90E09787868780EC90E03C
:10269000918B808B81EC90E0938B828B82EC90E02D
:1026A000958B848B86EC90E0978B868B118E128EA7
:1026B000138E148E4BE06BE085EA94E00E94430792
:1026C0004CE06CE088EB94E00E9443074DE06DE045
:1026D0008BEC94E00C944307662777273BC01F934D
:1026E000FC0199278827BC01E89411911032E9F385
:1026F000193010F01E30C8F31B3249F01D3241F47E
:10270000689405C012D0610F711D811D911D11913A
:1027100010531A30B8F33EF49095809570956195FA
:102720007F4F8F4F9F4F1F910895592F482F372F5D
:10273000262F660F771F881F991F660F771F881F28
:10274000991F620F731F841F951F660F771F881FC5
:10275000991F08958F929F92AF92BF92CF92DF926E
:10276000EF92FF920F931F93CF93DF93EC016B01D6
:102770006115710519F0FB01918380837E01FFEFE4
:10278000EF1AFF0A0881802F90E037D1892B11F0D2
:10279000E701F4CF0D3239F47E0182E0E80EF11C3E
:1027A000098111E008C00B3229F47E0192E0E90EA4
:1027B000F11C098110E0E701219743E050E064E358
:1027C00071E0CE0122D1892BB9F4239645E050E087
:1027D0006FE271E0CE0119D1892B09F42596C1145D
:1027E000D10419F0F601D183C0831111F0C060E06B
:1027F00070E080E89FE7F4C043E050E06CE271E0F5
:10280000CE0103D1892B59F4C114D10409F4E4C0D9
:10281000F2E0EF0EF11CF601F182E082DDC020E073
:1028200030E0A901C0E0D0E0F70160EDA62EA00ED7
:1028300089E08A1528F1912F9260B92E812F887036
:1028400012FF04C0811123C0219621C0811121975C
:10285000A5E0B0E00ED2DC01CB01880F991FAA1FC2
:10286000BB1F9C01AD012A0D311D411D511D283991
:1028700089E93807480789E1580748F0166006C01B
:102880009EEFA9120AC013FD40C01860B12E8FEF51
:10289000E81AF80A00811B2DC7CF802F8F7D853461
:1028A000A1F580818D3211F4106106C08B3221F0C8
:1028B000319661E070E004C08181329662E070E0A0
:1028C00080538A3018F0E61BF70B1FC060E070E001
:1028D00060389CE079075CF4DB01AA0FBB1FAA0FEC
:1028E000BB1F6A0F7B1F660F771F680F711D319624
:1028F000DF0111978C9180538A3050F314FF03C08D
:10290000719561957109C60FD71F11FF08C0C114D9
:10291000D10429F0CF010197F60191838083CA0188
:10292000B9018FD0212F2370233019F04B015C01A6
:1029300006C04B015C01B7FAB094B7F8B09420E040
:1029400030E0A901C501B40178D0882309F43CC066
:10295000D7FF06C0D195C195D1090BE411E002C0A3
:1029600003E611E06801F8E1CF1AD10890E2E92E00
:10297000F12CCE15DF056CF0F801259135914591CC
:102980005491C501B401BED04B015C01CE19DF09E1
:10299000F0CF04501109F594E7940C151D0549F783
:1029A0008A2D880F8B2D881F8F3F41F020E030E06B
:1029B000A901C501B40141D0811106C082E290E0B5
:1029C0009093DF048093DE04C501B40109C060E088
:1029D00070E080E89FEF04C060E070E080EC9FE76B
:1029E000DF91CF911F910F91FF90EF90DF90CF90EB
:1029F000BF90AF909F908F9008959111E6C0803264
:102A000019F089508550D0F70895FB01DC01415041
:102A1000504088F08D9181341CF08B350CF4805E31
:102A2000659161341CF06B350CF4605E861B61119E
:102A300071F3990B0895881BFCCF40D008F481E016
:102A40000895E89409C097FB3EF4909580957095A1
:102A500061957F4F8F4F9F4F9923A9F0F92F96E9EA
:102A6000BB279395F695879577956795B795F1115F
:102A7000F8CFFAF4BB0F11F460FF1BC06F5F7F4FFC
:102A80008F4F9F4F16C0882311F096E911C077230E
:102A900021F09EE8872F762F05C0662371F096E817
:102AA000862F70E060E02AF09A95660F771F881FE6
:102AB000DAF7880F9695879597F90895990F00088A
:102AC000550FAA0BE0E8FEEF16161706E807F90700
:102AD000C0F012161306E407F50798F0621B730B9B
:102AE000840B950B39F40A2661F0232B242B252B1C
:102AF00021F408950A2609F4A140A6958FEF811DBF
:102B0000811D08950BD07BC06CD028F071D018F0D7
:102B1000952309F05DC062C01124A5C081D0A0F347
:102B2000959FD1F3950F50E0551F629FF001729F62
:102B3000BB27F00DB11D639FAA27F00DB11DAA1F81
:102B4000649F6627B00DA11D661F829F2227B00DCE
:102B5000A11D621F739FB00DA11D621F839FA00D59
:102B6000611D221F749F3327A00D611D231F849FA9
:102B7000600D211D822F762F6A2F11249F57504000
:102B80008AF0E1F088234AF0EE0FFF1FBB1F661F9B
:102B9000771F881F91505040A9F79E3F510570F054
:102BA00017C061C05F3FECF3983EDCF386957795E4
:102BB0006795B795F795E7959F5FC1F7FE2B880F4F
:102BC000911D9695879597F90895992788270895D7
:102BD00097F99F6780E870E060E008959FEF80ECD0
:102BE000089500240A941616170618060906089573
:102BF00000240A9412161306140605060895092ED9
:102C00000394000C11F4882352F0BB0F40F4BF2B47
:102C100011F460FF04C06F5F7F4F8F4F9F4F089587
:102C200057FD9058440F551F59F05F3F71F047957D
:102C3000880F97FB991F61F09F3F79F08795089562
:102C4000121613061406551FF2CF4695F1DF08C081
:102C5000161617061806991FF1CF8695710561059E
:102C600008940895E894BB2766277727CB0197F946
:102C7000089509D0A59F900DB49F900DA49F800D3D
:102C8000911D11240895A29FB001B39FC001A39F7D
:102C9000700D811D1124911DB29F700D811D112495
:102CA000911D08955058BB27AA270ED0A8CF99DFB1
:102CB00030F09EDF20F031F49F3F11F41EF48ECFF0
:102CC0000EF4E095E7FB84CFE92FAADF80F3BA1773
:102CD000620773078407950718F071F49EF5C2CF59
:102CE0000EF4E0950B2EBA2FA02D0B01B901900127
:102CF0000C01CA01A0011124FF27591B99F0593F6B
:102D000050F4503E68F11A16F040A22F232F342FB2
:102D10004427585FF3CF469537952795A795F04000
:102D20005395C9F77EF41F16BA0B620B730B840B15
:102D3000BAF09150A1F0FF0FBB1F661F771F881FCD
:102D4000C2F70EC0BA0F621F731F841F48F4879525
:102D500077956795B795F7959E3F08F0B3CF939514
:102D6000880F08F09927EE0F9795879508950CD056
:102D700046CF3EDF40F035DF30F021F45F3F19F001
:102D800027CF511170CF2ACF4BDF98F39923C9F386
:102D90005523B1F3951B550BBB27AA276217730761
:102DA000840738F09F5F5F4F220F331F441FAA1F15
:102DB000A9F333D00E2E3AF0E0E830D091505040D5
:102DC000E695001CCAF729D0FE2F27D0660F771F83
:102DD000881FBB1F261737074807AB07B0E809F065
:102DE000BB0B802DBF01FF2793585F4F2AF09E3FFA
:102DF000510568F0EDCE37CF5F3FECF3983EDCF342
:102E0000869577956795B795F7959F5FC9F7880F72
:102E1000911D9695879597F90895E1E0660F771FC4
:102E2000881FBB1F621773078407BA0720F0621B55
:102E3000730B840BBA0BEE1F88F7E095089504D04E
:102E40006894B11110CF0895F3DE88F09F5790F089
:102E5000B92F9927B751A0F0D1F0660F771F881FBF
:102E6000991F1AF0BA95C9F712C0B13081F0FADE95
:102E7000B1E00895F7CE672F782F8827B85F39F033
:102E8000B93FCCF3869577956795B395D9F73EF41E
:102E900090958095709561957F4F8F4F9F4F0895C6
:102EA0000DDE08F48FEF089509DE880B990B089565
:102EB00097FB072E16F4009406D077FD08D05DD05E
:102EC00007FC05D03EF4909581959F4F089570952D
:102ED00061957F4F0895A1E21A2EAA1BBB1BFD012D
:102EE0000DC0AA1FBB1FEE1FFF1FA217B307E407E9
:102EF000F50720F0A21BB30BE40BF50B661F771F41
:102F0000881F991F1A9469F7609570958095909520
:102F10009B01AC01BD01CF010895052E97FB16F46E
:102F200000940FD057FD05D0D6DF07FC02D046F441
:102F300008C050954095309521953F4F4F4F5F4FBA
:102F4000089590958095709561957F4F8F4F9F4F15
:102F50000895EE0FFF1F881F8BBF0790F691E02D9D
:102F6000199491DE332312F48A1B9B0B01C08BDE74
:102F7000B7FF0895821B930B0895AA1BBB1B51E159
:102F800007C0AA1FBB1FA617B70710F0A61BB70BD9
:102F9000881F991F5A95A9F780959095BC01CD017E
:102FA00008950F931F93CF93DF938230910510F410
:102FB00082E090E0E091E204F091E30420E030E070
:102FC000A0E0B0E0309719F1408151810281138176
:102FD00048175907C8F08417950769F4109731F01E
:102FE00012960C93129713961C9327C00093E20439
:102FF0001093E30422C02115310519F0421753073D
:1030000018F49A01BD01EF01DF01F801DBCF2115B2
:103010003105F9F0281B390B2430310580F48A8101
:103020009B816115710521F0FB019383828304C0AC
:103030009093E3048093E204FE01329644C0FE01C3
:10304000E20FF31F81939193225031093983288332
:103050003AC02091E0043091E104232B41F4209107
:103060000A0230910B023093E1042093E004209196
:103070000802309109022115310541F42DB73EB700
:1030800040910C0250910D02241B350BE091E0049D
:10309000F091E104E217F307A0F42E1B3F0B281771
:1030A000390778F0AC014E5F5F4F2417350748F0C1
:1030B0004E0F5F1F5093E1044093E004819391937E
:1030C00002C0E0E0F0E0CF01DF91CF911F910F91BE
:1030D0000895CF93DF93009709F481C0FC013297E4
:1030E00013821282A091E204B091E304109781F45C
:1030F00020813181820F931F2091E0043091E104FF
:103100002817390751F5F093E104E093E00467C014
:10311000ED0120E030E0CE17DF0740F44A815B810B
:103120009E0141155105F1F0EA01F5CFD383C28329
:1031300040815181840F951FC817D90759F48881A0
:103140009981840F951F0296918380838A819B8148
:10315000938382832115310529F4F093E304E093EE
:10316000E2043DC0E901FB83EA8349915991C40F10
:10317000D51FEC17FD0761F480819181840F951FA5
:103180000296E90199838883828193819B838A8354
:10319000E0E0F0E012968D919C911397009719F062
:1031A000FD01DC01F7CF8D919C9111979D012E5F60
:1031B0003F4F820F931F2091E0043091E1042817C4
:1031C000390769F4309729F41092E3041092E2046D
:1031D00002C013821282B093E104A093E004DF9155
:1031E000CF9108956F927F928F929F92AF92BF92EC
:1031F000CF92DF92EF92FF920F931F93CF93DF93C3
:10320000009781F4CB01DF91CF911F910F91FF9037
:10321000EF90DF90CF90BF90AF909F908F907F9076
:103220006F90BFCEFC01E60FF71F9C0122503109C1
:10323000E217F30708F4A5C0EC01D9010D911C9128
:10324000119706171707A8F00530110508F497C065
:10325000C80104978617970708F491C00250110916
:10326000061B170B019311936D937C93CF0131DFF4
:1032700086C05B01A01AB10A4C01800E911EA0917C
:10328000E204B091E304612C712CE12CF12C109735
:1032900009F446C08D919C911197A815B905B1F517
:1032A0006C0142E0C40ED11CCA14DB0478F14C015D
:1032B0008A189B08640142E0C40ED11C1296BC908F
:1032C00012971396AC91B5E0CB16D10440F0B282C0
:1032D000A38391828082D9016D937C9309C00E5F94
:1032E0001F4F800F911FF90191838083EB2DFA2FDF
:1032F000E114F10431F0D7011396FC93EE93129789
:103300003EC0F093E304E093E20439C06816790606
:1033100008F43C017D0112960D90BC91A02DB7CF11
:103320008091E0049091E10488169906E1F4661614
:103330007706C8F48091080290910902009741F441
:103340008DB79EB740910C0250910D02841B950BD6
:10335000E817F907B0F4F093E104E093E004F90111
:10336000718360830CC0CB011CDE7C01009749F0A7
:10337000A801BE011BD0CE01ACDEC70104C0CE0146
:1033800002C080E090E0DF91CF911F910F91FF90FC
:10339000EF90DF90CF90BF90AF909F908F907F90F5
:1033A0006F90089581E090E0F8942AC0FB01DC0161
:1033B00002C001900D9241505040D8F70895FB0192
:1033C000DC0101900D920020E1F70895FB0151917D
:1033D0005523A9F0BF01DC014D9145174111E1F7DB
:1033E00059F4CD010190002049F04D914015411153
:1033F000C9F3FB014111EFCF81E090E001970895FF
:04340000F894FFCF6E
:1034040001019C010F279C010000E4042000050039
:1034140006000700020003000400080009000A0077
:10342400000000000D027701A5015902D601B40184
:10343400C8014F50454E4C4F4F500050494400482E
:10344400454E4553206669726D77617265207265D9
:103454006164793A20647269766520504944202B6E
:1034640020737465657220504944202B20535441C5
:103474004C4C206775617264202B207761746368FB
:10348400646F67000D0A00202053544545522063A1
:10349400616C3A2063656E7465723D00204C3D009A
:1034A40020523D0020204D41585F50574D206472FA
:1034B4006976653D002073746565723D0056454C20
:1034C4003A002C0050574D3A0053544545523A00A7
:1034D4005741544348444F473A2073657269616CBD
:1034E4002074696D656F7574202D2073746F70007E
:1034F4005354415455535F31306D733A20454E4314
:10350400313D002056454C3D00205441524745541E
:103514003D002050574D3D0020534C4F50453D0039
:10352400464C415400204D4F44453D0020534F4EDE
:103534004152313D0020534F4E4152323D00205301
:103544004F4E4152333D0053544545523A20414475
:10355400433D00205447543D0020414E473D002048
:10356400414E474143543D00205643433D002056BD
:103574004D494E3D005354414C4C3A206472697697
:10358400653D006E616E00696E66006F76660000D0
:00000001FF
